:020000040800F2
:100800000000012001A400086F7000087570000846
:100810007B700008817000088770000800000000ED
:100820000000000000000000000000008D700008C3
:100830009B70000800000000A9700008B770000855
:1008400051A4000851A4000851A4000851A40008B4
:1008500051A4000851A4000851A4000851A40008A4
:1008600051A4000851A40008C3700008D17000080A
:1008700051A4000851A4000851A4000851A4000884
:1008800051A4000851A40008E5700008F9700008A0
:100890000D710008217100083571000851A400088D
:1008A00051A4000851A4000851A4000851A4000854
:1008B00051A4000800000000000000004971000879
:1008C0005D71000851A4000851A4000851A400085B
:1008D0007171000885710008A1710008AF710008EE
:1008E00051A4000851A4000800000000000000000E
:1008F00000000000000000000000000000000000F8
:100900000000000051A400080000000051A40008ED
:10091000000000000000000051A40008BD710008A4
:1009200051A4000851A4000851A4000851A40008D3
:1009300051A40008000000000000000000000000BA
:1009400051A4000851A4000851A4000851A40008B3
:1009500051A4000851A4000851A4000851A40008A3
:1009600051A4000851A4000851A400080000000090
:1009700051A4000851A4000851A400080000000080
:0C09800051A4000851A4000851A4000874
:1009900010B5054C237833B9044B13B10448AFF3B9
:1009A00000800123237010BDC81600200000000045
:1009B000ECB3010808B5034B1BB103490348AFF37F
:1009C000008008BD00000000CC160020ECB3010838
:1009D00010F8012B11F8013B012A28BF9A42F7D0E9
:1009E000D01A7047034613F8012B002AFBD1181ABE
:1009F0000138704700000000000000000000000007
:100A000001F0FF01102A2BDB10F0070F08D010F8BF
:100A1000013B013A8B422DD010F0070F42B3F6D1C3
:100A2000F0B441EA012141EA014122F007047FF0DC
:100A300000070023F0E80256083C85EA010586EA33
:100A4000010685FA47F5A3FA87F586FA47F6A5FA6F
:100A500087F68EB9EED1F0BC01F0FF0102F007027B
:100A600032B110F8013B013A83EA010313B1F8D126
:100A70000020704701387047002D06BF3546033807
:100A8000073815F0010F07D1013015F4807F02BF40
:100A9000013015F4C03F0130F0BC0138704700BF91
:100AA00081F0004102E000BF83F0004330B54FEA1F
:100AB00041044FEA430594EA050F08BF90EA020F8C
:100AC0001FBF54EA000C55EA020C7FEA645C7FEA1F
:100AD000655C00F0E2804FEA5454D4EB5555B8BF42
:100AE0006D420CDD2C4480EA020281EA030382EAB3
:100AF000000083EA010180EA020281EA0303362D45
:100B000088BF30BD11F0004F4FEA01314FF4801C17
:100B10004CEA113102D0404261EB410113F0004F29
:100B20004FEA03334CEA133302D0524263EB4303E0
:100B300094EA050F00F0A780A4F10104D5F1200E7E
:100B40000DDB02FA0EFC22FA05F2801841F10001D9
:100B500003FA0EF2801843FA05F359410EE0A5F1AD
:100B600020050EF1200E012A03FA0EFC28BF4CF0DE
:100B7000020C43FA05F3C01851EBE37101F0004594
:100B800007D54FF0000EDCF1000C7EEB00006EEBA1
:100B90000101B1F5801F1BD3B1F5001F0CD349082B
:100BA0005FEA30004FEA3C0C04F101044FEA445282
:100BB00012F5800F80F09A80BCF1004F08BF5FEA09
:100BC000500C50F1000041EB045141EA050130BDE9
:100BD0005FEA4C0C404141EB0101013C28BFB1F5FB
:100BE000801FE9D291F0000F04BF01460020B1FA46
:100BF00081F308BF2033A3F10B03B3F120020CDA19
:100C00000C3208DD02F1140CC2F10C0201FA0CF0F6
:100C100021FA02F10CE002F11402D8BFC2F1200C5B
:100C200001FA02F120FA0CFCDCBF41EA0C01904011
:100C3000E41AA2BF01EB0451294330BD6FEA04045A
:100C40001F3C1CDA0C340EDC04F11404C4F1200245
:100C500020FA04F001FA02F340EA030021FA04F357
:100C600045EA030130BDC4F10C04C4F1200220FAAE
:100C700002F001FA04F340EA0300294630BD21FAEC
:100C800004F0294630BD94F0000F83F4801306BFB2
:100C900081F480110134013D4EE77FEA645C18BFA6
:100CA0007FEA655C29D094EA050F08BF90EA020F3D
:100CB00005D054EA000C04BF1946104630BD91EA35
:100CC000030F1EBF0021002030BD5FEA545C05D138
:100CD0004000494128BF41F0004130BD14F5800477
:100CE0003CBF01F5801130BD01F0004545F0FE41EB
:100CF00041F470014FF0000030BD7FEA645C1ABF20
:100D0000194610467FEA655C1CBF0B46024650EA56
:100D1000013406BF52EA033591EA030F41F4002182
:100D200030BD00BF90F0000F04BF0021704730B508
:100D30004FF4806404F132044FF000054FF00001DD
:100D400050E700BF90F0000F04BF0021704730B59E
:100D50004FF4806404F1320410F0004548BF404273
:100D60004FF000013EE700BF42004FEAE2014FEAC8
:100D700031014FEA02701FBF12F07F4393F07F4FA3
:100D800081F06051704732F07F4208BF704793F0A6
:100D90007F4F04BF41F40021704730B54FF46074B9
:100DA00001F0004521F000411CE700BF50EA0102BC
:100DB00008BF704730B54FF000050AE050EA010265
:100DC00008BF704730B511F0004502D5404261EBD5
:100DD00041014FF4806404F132045FEA915C3FF416
:100DE000D8AE4FF003025FEADC0C18BF03325FEAB3
:100DF000DC0C18BF033202EBDC02C2F1200300FA64
:100E000003FC20FA02F001FA03FE40EA0E0021FA88
:100E100002F11444BDE600BF70B54FF0FF0C4CF476
:100E2000E06C1CEA11541DBF1CEA135594EA0C0F28
:100E300095EA0C0F00F0DEF82C4481EA030621EA63
:100E40004C5123EA4C5350EA013518BF52EA03359E
:100E500041F4801143F4801338D0A0FB02CE4FF050
:100E60000005E1FB02E506F00042E0FB03E54FF080
:100E70000006E1FB03569CF0000F18BF4EF0010E78
:100E8000A4F1FF04B6F5007F64F5407404D25FEA74
:100E90004E0E6D4146EB060642EAC62141EA555127
:100EA0004FEAC52040EA5E504FEACE2EB4F1FD0C69
:100EB00088BFBCF5E06F1ED8BEF1004F08BF5FEAE7
:100EC000500E50F1000041EB045170BD06F0004699
:100ED00046EA010140EA020081EA0301B4EB5C0446
:100EE000C2BFD4EB0C0541EA045170BD41F480113E
:100EF0004FF0000E013C00F3AB8014F1360FDEBF63
:100F0000002001F0004170BDC4F10004203C35DA3E
:100F10000C341BDC04F11404C4F1200500FA05F3C1
:100F200020FA04F001FA05F240EA020001F0004262
:100F300021F0004110EBD37021FA04F642EB0601D8
:100F40005EEA430E08BF20EAD37070BDC4F10C0402
:100F5000C4F1200500FA04F320FA05F001FA04F2C6
:100F600040EA020001F0004110EBD37041F10001B2
:100F70005EEA430E08BF20EAD37070BDC4F12005BD
:100F800000FA05F24EEA020E20FA04F301FA05F225
:100F900043EA020321FA04F001F0004121FA04F2CD
:100FA00020EA020000EBD3705EEA430E08BF20EA9D
:100FB000D37070BD94F0000F0FD101F000464000D7
:100FC00041EB010111F4801F08BF013CF7D041EA59
:100FD000060195F0000F18BF704703F0004652005D
:100FE00043EB030313F4801F08BF013DF7D043EA2E
:100FF0000603704794EA0C0F0CEA135518BF95EAE4
:101000000C0F0CD050EA410618BF52EA4306D1D16A
:1010100081EA030101F000414FF0000070BD50EA89
:10102000410606BF1046194652EA430619D094EA13
:101030000C0F02D150EA013613D195EA0C0F05D1FD
:1010400052EA03361CBF104619460AD181EA030151
:1010500001F0004141F0FE4141F470014FF0000009
:1010600070BD41F0FE4141F4780170BD70B54FF0A4
:10107000FF0C4CF4E06C1CEA11541DBF1CEA135524
:1010800094EA0C0F95EA0C0F00F0A7F8A4EB050406
:1010900081EA030E52EA03354FEA013100F08880FD
:1010A0004FEA03334FF0805545EA131343EA1263C6
:1010B0004FEA022245EA111545EA10654FEA00267B
:1010C0000EF000419D4208BF964244F1FD0404F534
:1010D000407402D25B084FEA3202B61A65EB030590
:1010E0005B084FEA32024FF480104FF4002CB6EB4D
:1010F000020E75EB030E22BFB61A754640EA0C00CD
:101100005B084FEA3202B6EB020E75EB030E22BF0C
:10111000B61A754640EA5C005B084FEA3202B6EB4D
:10112000020E75EB030E22BFB61A754640EA9C000C
:101130005B084FEA3202B6EB020E75EB030E22BFDC
:10114000B61A754640EADC0055EA060E18D04FEA9A
:10115000051545EA16754FEA06164FEAC30343EA3A
:1011600052734FEAC2025FEA1C1CC0D111F4801F07
:101170000BD141EA00014FF000004FF0004CB6E700
:1011800011F4801F04BF01430020B4F1FD0C88BF9F
:10119000BCF5E06F3FF6AFAEB5EB030C04BFB6EBAA
:1011A000020C5FEA500C50F1000041EB045170BD9D
:1011B0000EF0004E4EEA113114EB5C04C2BFD4EBCA
:1011C0000C0541EA045170BD41F480114FF0000E4E
:1011D000013C90E645EA060E8DE60CEA135594EACA
:1011E0000C0F08BF95EA0C0F3FF43BAF94EA0C0FCD
:1011F0000AD150EA01347FF434AF95EA0C0F7FF442
:1012000025AF104619462CE795EA0C0F06D152EA95
:1012100003353FF4FDAE1046194622E750EA410679
:1012200018BF52EA43067FF4C5AE50EA41047FF48A
:101230000DAF52EA43057FF4EBAE12E74FF0FF3CEF
:1012400006E000BF4FF0010C02E000BF4FF0010CC0
:101250004DF804CD4FEA410C7FEA6C5C4FEA430C39
:1012600018BF7FEA6C5C1BD001B050EA410C0CBF88
:1012700052EA430C91EA030F02BF90EA020F0020EA
:10128000704710F1000F91EA030F58BF994208BF51
:1012900090422CBFD8176FEAE37040F0010070470E
:1012A0004FEA410C7FEA6C5C02D150EA013C07D165
:1012B0004FEA430C7FEA6C5CD6D152EA033CD3D0B0
:1012C0005DF8040B704700BF8446104662468C46AA
:1012D0001946634600E000BF01B5FFF7B7FF0028DD
:1012E00048BF10F1000F01BD4DF808EDFFF7F4FF06
:1012F0000CBF012000205DF808FB00BF4DF808ED91
:10130000FFF7EAFF34BF012000205DF808FB00BFB3
:101310004DF808EDFFF7E0FF94BF012000205DF8D5
:1013200008FB00BF4DF808EDFFF7CEFF94BF01208A
:1013300000205DF808FB00BF4DF808EDFFF7C4FF83
:1013400034BF012000205DF808FB00BF4FEA410CCC
:101350007FEA6C5C02D150EA013C0AD14FEA430CAF
:101360007FEA6C5C02D152EA033C02D14FF00000EC
:1013700070474FF0010070474FEA410212F500122A
:1013800015D211D56FF47873B3EB625212D94FEACC
:10139000C12343F0004343EA505311F0004F23FAB6
:1013A00002F018BF404270474FF00000704750EA0B
:1013B000013005D111F0004008BF6FF000407047C8
:1013C0004FF00000704700BF4A0011D212F5001222
:1013D00011D20DD56FF47873B3EB62520ED44FEA8D
:1013E000C12343F0004343EA505323FA02F070470D
:1013F0004FF00000704750EA013002D14FF0FF304B
:1014000070474FF0000070474FEA4102B2F1E043ED
:1014100024BFB3F5001CDCF1FE5C0DD901F0004CDB
:101420004FEAC0024CEA5070B2F1004F40EB83002B
:1014300008BF20F00100704711F0804F21D113F157
:101440003872BCBF01F00040704741F480114FEA90
:101450005252C2F11802C2F1200C10FA0CF320FA19
:1014600002F018BF40F001004FEAC1234FEAD32336
:1014700003FA0CFC40EA0C0023FA02F34FEA4303A0
:10148000CCE77FEA625307D150EA01331EBF4FF029
:10149000FE4040F44000704701F0004040F0FE4044
:1014A00040F40000704700BF53B94AB9002908BF93
:1014B00000281CBF4FF0FF314FF0FF3000F0A4B9FF
:1014C000ADF1080C6DE904CE00F03CF8DDF804E065
:1014D000DDE9022304B0704738B50022002304463A
:1014E0000D46FFF70BFF28B920462946BDE83840D6
:1014F00000F00AB8204605F1004100F005F840422E
:1015000061EB410138BD00BFD0B50C4B002206464F
:101510000F46FFF781FCFFF757FF0446FFF702FC79
:10152000074B0022FFF778FC02460B46304639464F
:10153000FFF7BAFAFFF748FF2146D0BD0000F03DA3
:101540000000F0412DE9F047089D04468C46002B31
:1015500040F083808A42174647D9B2FA82F242B1FC
:10156000C2F1200024FA00F09140974040EA010CBB
:1015700094404FEA1748230CBCFBF8F61FFA87FE8D
:1015800008FB16C143EA014306FB0EF1994209D953
:10159000FB1806F1FF3080F01981994240F2168164
:1015A000023E3B445B1AA4B2B3FBF8F008FB1033D5
:1015B00044EA034400FB0EFEA64509D93C1900F19C
:1015C000FF3380F00581A64540F2028102383C4499
:1015D00040EA0640A4EB0E0400261DB1D4400023CF
:1015E000C5E900433146BDE8F08702B9FFDEB2FA33
:1015F00082F2002A50D1CB1B4FEA174E1FFA87F810
:101600000126B3FBFEFC210C0EFB1C3341EA034117
:1016100008FB0CF38B4207D979180CF1FF3002D28A
:101620008B4200F2E9808446C91AA3B2B1FBFEF0F6
:101630000EFB101143EA014408FB00F8A04507D94E
:101640003C1900F1FF3302D2A04500F2D9801846C0
:10165000A4EB080440EA0C40BFE78B4209D9002DF7
:1016600000F0B1800026C5E9000130463146BDE8F2
:10167000F087B3FA83F6002E4AD18B4202D382421E
:1016800000F2B880841A61EB030101208C46002D22
:10169000A8D0C5E9004CA5E7C2F1200320FA03F663
:1016A000974001FA02F04FEA174ED9403043030C3D
:1016B000B1FBFEF61FFA87F80EFB161143EA014351
:1016C00006FB08F1994204FA02F409D9FB1806F165
:1016D000FF3C80F08D80994240F28A80023E3B447C
:1016E0005B1A81B2B3FBFEF00EFB103341EA0341FB
:1016F00000FB08F38B4207D9791800F1FF3C73D245
:101700008B4271D902383944CB1A40EA064678E751
:10171000C6F1200C03FA06F422FA0CF31C4320FA5B
:101720000CF701FA06F34FEA144E21FA0CF11F43AD
:101730003B0CB1FBFEF91FFA84F80EFB191143EACA
:10174000014109FB08FA8A4502FA06F200FA06F39B
:1017500008D9611809F1FF3048D28A4546D9A9F164
:1017600002092144A1EB0A01BFB2B1FBFEF00EFB5E
:10177000101147EA014700FB08F8B84507D9E719F7
:1017800000F1FF312ED2B8452CD90238274440EA67
:101790000940A7EB0807A0FB02894F45C64649460A
:1017A0001AD317D05DB1B3EB0E0267EB010707FA4E
:1017B0000CFCF2404CEA0202F740C5E90027002683
:1017C0003146BDE8F0872E4628460BE70646E9E697
:1017D0001846FDE64345E5D2B8EB020E69EB04017D
:1017E0000138DFE70846D2E760468DE78146B9E772
:1017F000664675E730464AE7ACF1020C394413E718
:1018000002383C4424E700BF704700BF80B485B075
:1018100000AF78600B467B800023FB6000237B8158
:1018200000237B810AE07B897A6813441B781A467F
:10183000FB681344FB607B8901337B817A897B8859
:10184000043B9A42EFDBFB680133FB60FB68184600
:101850001437BD465DF8047B7047000090B585B035
:1018600004AF0C2200212D4814F0BEF84FF47A7317
:1018700002930C230193294B009302230022A02101
:1018800027480DF089FE0346002B04D001210820D3
:1018900000F018FB03E00021082000F013FB1F4BB1
:1018A0009C680C211D48FFF7B1FF03469C4231D0D4
:1018B0000C220021194814F097F84FF47A73029320
:1018C0000C230193154B009302231022A0211448EE
:1018D0000DF062FE0346002B04D00121082000F029
:1018E000F1FA03E00021082000F0ECFA0B4B9C68B1
:1018F0000C210A48FFF78AFF03469C420AD00C22BB
:101900000021064814F070F8044B00221A60034BC3
:1019100000225A6000BF0437BD4690BDB0210020B0
:10192000C436002080B584B004AF22480FF024F9FB
:101930000C212148FFF76AFF03461F4A93604FF4CA
:101940007A7302930C2301931B4B00930223002212
:10195000A0211A480DF0FEFC0346002B04D0012103
:10196000082000F0AFFA03E00021082000F0AAFAF6
:1019700010480FF001F9062008F0E0FD4FF47A73EB
:1019800002930C2301930C4B009302231022A021FD
:101990000A480DF0DFFC0346002B04D0012108208B
:1019A00000F090FA03E00021082000F08BFA00BF5D
:1019B000BD4680BD18370020B0210020C43600206D
:1019C00080B586B000AF3B4600221A605A609A602C
:1019D000DA601A615A613E4B3E4A1A603C4B002263
:1019E0005A603B4B00229A60394B0022DA60384B38
:1019F00001221A61364B04225A61354B00221A76B5
:101A0000334B01225A76324B0422DA61304B0022EA
:101A100083F820202E4B00229A622D4B0022DA629E
:101A20002B4B012283F83020294B00225A63284B8C
:101A3000002283F83820264808F0DAFF0346002BFE
:101A400001D002F09AFD244B3B6006237B60072304
:101A5000BB607F23FB6004233B6100237B613B462B
:101A600019461B4809F0FEFD0346002B01D002F089
:101A700084FD1A4B3B600C237B603B46194614489F
:101A800009F0F0FD0346002B01D002F076FD144B67
:101A90003B6012237B603B4619460D4809F0E2FD8E
:101AA0000346002B01D002F068FD0E4B3B6018236B
:101AB0007B603B461946064809F0D4FD0346002BDF
:101AC00001D002F05AFD00BF1837BD4680BD00BFEF
:101AD000BC210020000004500002B0250004002AB0
:101AE0000008302E0010603280B5A2B000AF7860E0
:101AF00007F1740300221A605A609A60DA601A6172
:101B000007F1140360220021184613F06DFF7B6873
:101B10001B683F4A934276D14FF480437B614FF07C
:101B20008053BB660323BB610523FB610D233B622E
:101B300007237B620223BB620223FB624FF08073A8
:101B40003B6307F11403184610F06EF80346002BB0
:101B500001D002F012FD2F4BDB6C2E4A43F40053F0
:101B6000D3642C4BDB6C03F400533B613B69294B82
:101B7000DB6C284A43F00103D364264BDB6C03F093
:101B80000103FB60FB68F0237B670B23BB6700232B
:101B9000FB6707F1740319464FF090400CF0DAFE32
:101BA0001D4B1E4A1A601C4B00225A601A4B002221
:101BB0009A60194B0022DA60174B80221A61164B8B
:101BC0004FF400725A61144B4FF400629A61124B49
:101BD0002022DA61104B00221A620F480BF0CEFF70
:101BE0000346002B01D002F0C8FC7B680A4ADA6485
:101BF000094A7B6893620022062112200BF056FFEF
:101C000012200BF07FFF00BF8837BD4680BD00BFAC
:101C10000000045000100240202200200800024072
:101C200080B500AF174B184A1A60164B0A225A604B
:101C3000144B00229A60134B0022DA60114B4FF4D0
:101C400040221A610F4B4FF480125A610D4B012252
:101C50001A760C4B01225A760A4B01229A76094BCE
:101C60000022DA76074B00221A77064B00225A77B9
:101C700004480AF03BFD0346002B01D002F07DFC36
:101C800000BF80BD682200200064004080B58AB09B
:101C900000AF786007F1140300221A605A609A605E
:101CA000DA601A617B681B68274A934248D1274B48
:101CB0009B6D264A43F000739365244B9B6D03F0A4
:101CC00000733B613B69214BDB6C204A43F002030C
:101CD000D3641E4BDB6C03F00203FB60FB684FF424
:101CE00040737B610223BB610023FB6103233B62E2
:101CF00009237B6207F11403194615480CF02AFEEC
:101D00000022012113200BF0D1FE13200BF0FAFE6C
:101D10000022012114200BF0C9FE14200BF0F2FE6A
:101D20000022012115200BF0C1FE15200BF0EAFE68
:101D30000022012116200BF0B9FE16200BF0E2FE66
:101D400000BF2837BD4680BD00640040001002403F
:101D50000004004880B582B000AF78607B681B68E3
:101D60000E4A934216D10E4B9B6D0D4A23F0007321
:101D700093654FF440710B480DF034F813200BF0CD
:101D8000D9FE14200BF0D6FE15200BF0D3FE162042
:101D90000BF0D0FE00BF0837BD4680BD0064004098
:101DA0000010024000040048B0B584B000AF2D4BD5
:101DB0001B682D4A13600023FB600023BB600023D7
:101DC0007B60284B1B68FB60284B1B68BB60284B63
:101DD0001B687B607B680A222649184613F0E4FDE5
:101DE0002449254814F0CAFDBB680A222149184637
:101DF00013F0DAFD1F49204814F0C0FDFB680A22E9
:101E00001C49184613F0D0FD1A491B4814F0B6FDC2
:101E10003C220021194813F0E7FD184B184A11889D
:101E2000927819809A701449144814F0A7FD134849
:101E3000FEF7D8FD03461A46104B1344114A1D46BF
:101E400014460FCC28606960AA60EB6003CC28615F
:101E500069612388A2782B831346AB7600BF1037C5
:101E6000BD46B0BD9075FF1F301800209475FF1F50
:101E70009875FF1F34000020000000203418002057
:101E800008B401080CB4010880B582B000AF0C4B57
:101E90009B6C0B4A43F001039364094B9B6C03F06A
:101EA00001037B607B68002206210B200BF0FEFD06
:101EB0000B200BF027FE00BF0837BD4680BD00BFDA
:101EC0000010024080B483B000AF03460A46FB71A5
:101ED0001346BB71FB79092B26D801A252F823F0D7
:101EE000091F0008291F0008291F0008291F0008D2
:101EF000291F0008291F0008291F0008111F0008BA
:101F0000191F0008211F0008BB790B4A13600CE061
:101F1000BB79094AD36108E0BB79074A136204E040
:101F2000BB79054A536200E000BF00BF0C37BD46D5
:101F30005DF8047B704700BF9022002080B58AB016
:101F400000AF07F1140300221A605A609A60DA6049
:101F50001A61454BDB6C444A43F00403D364424BA3
:101F6000DB6C03F004033B613B693F4BDB6C3E4A97
:101F700043F08003D3643C4BDB6C03F08003FB60D5
:101F8000FB68394BDB6C384A43F00103D364364BB2
:101F9000DB6C03F00103BB60BB68334BDB6C324A84
:101FA00043F00203D364304BDB6C03F002037B602D
:101FB0007B6800224FF400512C480DF041F80022BC
:101FC00048F203014FF090400DF03AF8002241F240
:101FD0000D0127480DF034F84FF400537B610123C5
:101FE000BB610023FB6100233B6207F11403194628
:101FF0001E480CF0AFFC48F203037B610123BB6178
:102000000023FB6100233B6207F1140319464FF0E4
:1020100090400CF09FFC41F20D037B610123BB61FA
:102020000023FB6100233B6207F1140319461048AB
:102030000CF090FC10237B614FF44413BB61002330
:10204000FB6107F11403194609480CF083FC0022D8
:1020500002210A200BF02AFD0A200BF053FD00BFDD
:102060002837BD4680BD00BF001002400008004870
:102070000004004880B483B000AF78607B68DB69FF
:1020800003F08003802B01D1012300E000231846D8
:102090000C37BD465DF8047B704780B483B000AF59
:1020A00078600B46FB70FB789AB27B681A8500BF9C
:1020B0000C37BD465DF8047B70470000B0B500AF3B
:1020C00096220021C54813F08FFC23220021C4482A
:1020D00013F08AFC0A220021C24813F085FC40F666
:1020E0008C220021C04813F07FFC4FF461723F2125
:1020F000BE4813F079FC08223F21BD4813F074FC60
:102100000D223F21BB4813F06FFC4FF448720021B1
:10211000B94813F069FC03220021B84813F064FCAD
:10212000B4220021B64813F05FFCB4220021B54868
:1021300013F05AFCB4220021B34813F055FCB34904
:10214000AF4814F01BFCAE48FEF74CFC03461A46A1
:10215000AB4B1344AE491A460B461B881380AD495E
:10216000A74814F00BFCA648FEF73CFC03461A46B1
:10217000A34B1344A6491A460B461B881380A0485C
:10218000FEF730FC03461A469D4B1344A2491A46FB
:102190000B4603CB1060516019889B7811819372B4
:1021A000984A9E4B14461D460FCD0FC40FCD0FC449
:1021B0000FCD0FC495E80F0007C4238002341B0C19
:1021C00023709048FEF70EFC03461A468D4B1344CD
:1021D000934A1188927819809A706422002191485C
:1021E00013F002FC90498F4814F0C8FB8D48FEF7AD
:1021F000F9FB03461A468B4B134485491A460B4696
:102200001B8813808748FEF7EDFB03461A46854B73
:102210001344864A1D4614460FCC28606960AA60A4
:10222000EB602388A2782B821346AB747D48FEF7BF
:10223000D9FB03461A467B4B134475491A460B4695
:102240001B8813807748FEF7CDFB03461A46754B73
:10225000134477491A460B461B8813807148FEF7D2
:10226000C1FB03461A466F4B1344724A106818604C
:1022700012791A716B48FEF7B5FB03461A46694B93
:102280001344674A1188927819809A709622002127
:10229000694813F0A9FB6949674814F06FFB664869
:1022A000FEF7A0FB03461A46634B134458491A46EF
:1022B0000B461B8813806249624814F07BFB61491E
:1022C0005D4814F05BFB5C48FEF78CFB03461A4646
:1022D000594B13445C4A106818605748FEF782FB5C
:1022E00003461A46544B1344574A10681860524824
:1022F000FEF778FB03461A464F4B1344534A1068C7
:102300001860C8220021524813F06EFB5149504812
:1023100014F034FB4E48FEF765FB03461A464C4B5F
:1023200013443B491A460B461B8813804848FEF766
:1023300059FB03461A46464B1344474A1D4614466A
:102340000FCC28606960AA60EB6003CC28616961EA
:1023500023882B833E48FEF745FB03461A463C4B39
:1023600013443E4A1068186092889A802648FEF707
:1023700039FB03461A46244B1344294A11889278A4
:1023800019809A70154B03F596531E3300221A706C
:10239000124B002283F8AE2F104B002283F8B02F8F
:1023A0000E4B002283F8862F0C4B0022C3F8A82F77
:1023B0000A4B002283F8842F084B002283F8832FD6
:1023C000064B052283F8852F044B002283F8882FC3
:1023D000024B4FF47A72C3F8902F41E0E4230020BF
:1023E0001A25002010250020DB2800203D25002094
:1023F000C128002095330020A2330020C9280020E6
:1024000010030020C40300207804002028020020CC
:10241000C8B401084C070020CCB40108D8B40108A6
:1024200018B50108680500205805002094BC010873
:102430001CB50108A8BC0108DC050020CC05002063
:1024400000000020EC19002020B5010824B5010887
:10245000840600207406002020BD010828B501086C
:102460001F4B204A1A60204B0022C3F89C2F1E4BA2
:10247000002283F88A2F1C4B002283F8AC2F1A4BC2
:10248000012283F8AF2F184B012283F8AD2F174B91
:102490004FF4FA721A60164B01221A70154B002283
:1024A0001A7000224FF400414FF090400CF0C8FD2C
:1024B000114B00221A70114B00221A60104B1B782E
:1024C00043F04003DAB20E4B1A700E4B00221A7022
:1024D0000D4B00221A700D4B00221A6000BFB0BDD8
:1024E0007021002020BF0200E4230020742100207E
:1024F000551A0020841A00201E1A0020501A0020AD
:10250000861A0020851A00207118002074180020F7
:1025100090B5ADF5965D85B041F2D0276F44BD4BC7
:10252000D3F8903F002B40F0A481BA4B93F8AE3F14
:10253000DBB2092B03D9B74B002283F8AE2FB54B82
:1025400093F8AE3FDBB2092B00F28B8101A252F867
:1025500023F000BF7D2500080D260008192700087C
:102560003527000899260008D92600087D2600088E
:102570000F2800083528000851280008A54B93F8BB
:10258000B03F002B0FD101224FF40051A2480CF0B4
:1025900057FDA04B41F65832C3F8902F9D4B0122B6
:1025A00083F8B02F27E09B4B93F8B03F012B13D15A
:1025B00000224FF4005198480CF042FD954B4FF427
:1025C0007A62C3F8902F934B012283F8AE2F914B80
:1025D000022283F8B02F0EE08E4B93F8B03F022B0F
:1025E00009D18C4B93F8AE3FDBB2002B03D1894B62
:1025F000002283F8B02F874B93F8B03F022B40F2B4
:102600003381844B002283F8B02F2DE1814B93F866
:10261000AD3FDBB2052B02D1FFF750FD25E17D4B2D
:1026200093F8AF3F192B1BD17C4B1B78012B0ED19C
:10263000784B142283F8AF2F764B022283F8AE2F0B
:10264000774B01221A70754B00221A700DE1714B05
:10265000142283F8AF2F6F4B022283F8AE2F04E1D0
:102660006C4C684604F1100341F2D022194613F075
:10267000ADF994E80F0000F007F9F6E0654C684604
:1026800004F1100341F2D022194613F09FF994E8A7
:102690000F0000F0F9F8E8E0614B1B78012B0DD139
:1026A0005C4C684604F1100341F2D022194613F045
:1026B0008DF994E80F0000F0E7F8D6E0554B1422AE
:1026C00083F8AF2F534B022283F8AE2F514B4FF4B8
:1026D000FA62C3F8902FC8E0524B1B78012B0DD142
:1026E0004C4C684604F1100341F2D022194613F015
:1026F0006DF994E80F0000F0C7F8B6E0454B1422DE
:1027000083F8AF2F434B022283F8AE2F414B4FF497
:10271000FA62C3F8902FA8E03E4C684604F110031B
:1027200041F2D022194613F051F994E80F0000F05D
:10273000ABF89AE03C4803F08AFC0346002B07D133
:10274000394B5B68384A023352F82330002B0DD1E5
:10275000364803F04BFD0346002B4ED1334B5B68EC
:10276000324A023352F82330002B46D0304B1B78CC
:10277000002B0AD1274B93F8AF3F202B05D101F056
:1027800093F82B4B01221A7036E0294B1B78012B52
:1027900008D1204B93F8AF3F222B03D1244B0022CA
:1027A0001A7029E0224B1B78002B0AD1194B93F8A1
:1027B000AF3F192B05D101F077F81D4B01221A709C
:1027C0001AE01B4B1B78012B08D1124B93F8AF3F3B
:1027D000222B03D1164B00221A700DE00D4C6846D7
:1027E00004F1100341F2D022194613F0EFF894E8F7
:1027F0000F0000F049F809E008E0064B142283F8C6
:10280000AF2F044B022283F8AE2F2EE02DE0FFF70E
:1028100055FC2AE0E4230020000800488918002025
:10282000201A00201F1A0020B42300208423002037
:1028300088180020114C684604F1100341F2D022A0
:10284000194613F0C3F894E80F0000F01DF80CE0EF
:102850000A4B032283F8AE2F084B192283F8AF2FBF
:1028600003E0FFF72BFC00E000BF054B054A1A60B0
:1028700000E000BF0437BD4690BD00BFE423002048
:102880007021002020BF020090B591B000AF9B4B9B
:1028900093F8AC3FDBB2002B04D0012B00F0E580B5
:1028A00000F0F8BF954B93F8AD3FDBB2012B40F041
:1028B0008380934B00221A60904B93F8AF3F222BFA
:1028C00028D1904B1B78012B08D18F4B5B688E4A27
:1028D000023352F823308D4A13600BE0894B1B788A
:1028E000022B07D18A4B5B68894A023352F82330A6
:1028F000864A1360854B1B68002B07D0834B1B68EF
:102900001846FEF76FF80346132B3AD87F4B814ADF
:102910001A6036E0794B93F8AF3F1A2B28D1794BE8
:102920001B78012B08D1784B5B68774A023352F849
:102930002330764A13600BE0724B1B78022B07D1D1
:10294000734B5B68724A023352F823306F4A13604C
:102950006E4B1B68002B07D06C4B1B681846FEF7AC
:1029600041F80346132B0CD8684B6A4A1A6008E0FA
:10297000624B93F8AF3F684A1B0113441B68634ADC
:102980001360624B1B681846FEF72CF80346634A37
:1029900013605E4B1A685A4B1B68591C58480160FB
:1029A00013441B7819465E48FFF777FB534B02220E
:1029B00083F8AD2F00F06BBF504B93F8AD3FDBB207
:1029C000022B4ED15648FFF755FB0346002B00F073
:1029D0005E874B4B1A68514B1B689A420ED24B4B89
:1029E0001A68474B1B68591C4548016013441B7803
:1029F00019464B48FFF751FB00F049BF404B0022FE
:102A00001A60484B4FF4FA721A60444B00221A6065
:102A10003A4B012283F8AC2F384B93F8AF3F3E4A34
:102A20001B01134408331B68344AC2F8A43F334BDC
:102A300093F8AF3F1D2B09D0304B93F8AF3F1E2BBF
:102A400004D02E4B93F8AF3F1F2B05D1364B43F6E6
:102A500098221A6000F01BBF334B00221A6000F06E
:102A600016BFFFF72BFB00F012BF2E4B1B68002B8D
:102A700040F0B586214BD3F8A43F002B00F0AF8681
:102A80002A4B1B68012B40F0AA86274B1B68002BA2
:102A900040F0A5862649274813F0B9FF38633B6B01
:102AA000002B51D02449234813F0B1FFF862FB6A90
:102AB000002B1FD021491F4813F0A9FF0346002B0C
:102AC00014D0FA6A3B6BD31ABB62962200211C48D1
:102AD00012F08AFF3B6B591EBB6A03331A46184833
:102AE00012F074FF174B01221A7030E0154B0022D0
:102AF0001A702CE0134B00221A7028E0E423002007
:102B0000781A002070180020B42300207C1A0020BE
:102B100084230020341800203CBD0108801A0020C6
:102B200000380140542100206C210020BC1A0020F4
:102B300030B50108DB28002034B501080000002072
:102B40005800002071180020CB4B00221A70CB4B8C
:102B500093F8AF3FCA4A1B01134404331B6819465C
:102B6000C84813F054FF0346002B00F02686C34BE1
:102B700093F8AF3F222B00F2DC8501A252F823F03C
:102B80000D2C0008192C0008772C0008832C000855
:102B90005F2D0008DF2C0008252C0008C12D00083F
:102BA000032E00080F2E00081B2E0008272E0008F9
:102BB000332E0008333700083F2E00084B2E000844
:102BC000532E00085F2E00086B2E000833370008D4
:102BD000D12E0008913000089B300008A530000875
:102BE000AF300008732F0008BF300008133400080E
:102BF000333700081D3400086D350008A135000882
:102C00007D2F0008AD2F0008A32F00089B4B012249
:102C100083F8892F00F098BD984B012283F8892F03
:102C200000F092BD9849974813F0F1FEF86097487C
:102C3000FDF7D8FE03461A460021944812F0D4FE50
:102C4000FB6803F10A04FB680A339149184614F043
:102C500029FD03461846FDF7C5FE03461A462146E0
:102C60008A4812F0B3FE00F0E7FF844B012283F89C
:102C7000892F00F069BD814B012283F8892F00F074
:102C800063BD84497F4813F0C2FE38608248FDF777
:102C9000A9FE03461A4600217F4812F0A5FE3B68B4
:102CA000DC1D3B6807337D49184614F0FBFC0346E6
:102CB0001846FDF797FE03461A462146764812F05D
:102CC00085FE754812F029FE02460B467449C1E99B
:102CD00000236A4B012283F8892F00F035BD71492A
:102CE000684813F094FEB860BB689C1D6E49B868D4
:102CF00014F0D8FC03461846FDF774FE03461A4646
:102D000021466A4812F062FE5C4BB3F82C21684BF6
:102D10001A80674812F0FDFD0346DAB2654B1A705F
:102D2000564B93F8AE3FDBB2062B12D1534B41F218
:102D30008832C3F8902F514B032283F8AE2F4F4BAC
:102D4000192283F8AF2F4D4B002283F8892F00F012
:102D5000FBBC4A4B012283F8892F00F0F5BC564991
:102D6000484813F054FE0346002B23D02C2145483D
:102D700013F013FE78607B6801331B78302B08D189
:102D80004E4B00221A71FFF799F94D4B01221A7030
:102D900010E07B6801331B78312B04D07B68013352
:102DA0001B78352B03D1454B01221A7102E0434BAE
:102DB00000221A71314B012283F8892F00F0C4BC24
:102DC0004049304813F023FE38610F2200213E486D
:102DD00012F00AFE3B6903F10A043C49386914F019
:102DE00061FC03461846FDF7FDFD03461A462146E1
:102DF000354812F0EBFD214B012283F8892F00F0BA
:102E0000A3BC1E4B012283F8892F00F09DBC1B4BF5
:102E1000012283F8892F00F097BC184B012283F818
:102E2000892F00F091BC154B012283F8892F00F007
:102E30008BBC124B012283F8892F00F085BC0F4B0D
:102E4000012283F8892F00F07FBC0C4B012283F80C
:102E5000892F0A4B012283F8892F00F075BC074B9C
:102E6000012283F8892F00F06FBC044B012283F804
:102E7000892F00F069BC00BF71180020E4230020F6
:102E80003CBD0108DB2800205CB40108B00700202D
:102E900038B5010844B40108C40F002024B5010866
:102EA000801800203CB5010844B501081025002019
:102EB000581A00205A1A002048B50108182000208E
:102EC0008918002064B40108B40F00201CB5010863
:102ED000B049B14813F09BFD786196220021AF48BC
:102EE00012F082FD7B69002B0DD0AD49786914F09A
:102EF000D9FB03461846FDF775FD03461A46796966
:102F0000A64812F063FDA74B1B68012B24D1A64BEA
:102F10001B68012B13D1A54803F099F80346012B38
:102F20000DD101F047F89D4B1B2283F8AF2F9B4B2F
:102F3000082283F8AE2F9E4B00221A7007E0974BB1
:102F4000052283F8AF2F954B062283F8AE2F934BC3
:102F5000002283F8892FF4E3924B1B68002B40F08A
:102F6000F0838E4B012283F8892F8E4B01221A6049
:102F7000E7E38A4B012283F8892FE5E38D498648F0
:102F800013F045FD38623B6A1A1D844B03F2E5439A
:102F90001188927819809A70804B012283F8892FCA
:102FA000D2E37E4B012283F8892FCDE381497A4811
:102FB00013F02DFD78627B6A1A1D784B03F2E5430E
:102FC0001188927819809A707B4812F0A2FC03460F
:102FD000C82B2AD1794B1B78012B03D1734802F0FF
:102FE000D5FF06E0754B1B78022B02D1744803F025
:102FF0009CF86A4B4FF4FA62C3F8902F714B002291
:103000001A70664B192283F8AF2F644B202283F885
:10301000AF2F624B002283F8892F674812F079FCAA
:1030200003461A46684B1A6031E0634812F071FC9F
:1030300003461A46644B1A60584B93F88A3F013393
:10304000DAB2564B83F88A2F544B93F88A3F042BFD
:1030500005D9FFF733F85D4B01221A7017E0564887
:1030600012F057FC03461A46574B1A604B4B192275
:1030700083F8AF2F494B202283F8AF2F474B002214
:10308000C3F8A42F454B002283F8892F00BF5BE3D0
:10309000424B012283F8892F56E3404B012283F8EB
:1030A000892F51E33D4B012283F8892F4CE3484B94
:1030B00001221A70394B012283F8892F44E300233F
:1030C000FB63002387F83B300023FB631AE0334A9D
:1030D000FB6B134403F2F7431B78002B0CD12F4AF0
:1030E000FB6B134403F2F74321221A7097F83B302D
:1030F000013387F83B3002E0002387F83B30FB6B5D
:103100000133FB63FB6B40F68B22934203D897F8A5
:103110003B30012BDBD900237B632E491E4814F082
:10312000C1FA7863D9E008222B49786B13F04AFC86
:103130000346002B0AD10F220021284812F054FC2C
:103140000D22796B254812F041FCC1E0032224498D
:10315000786B13F037FC0346002B49D17B6B5C1D69
:103160000F49786B13F053FC02467B6B0533D31A7F
:103170001A4621461B4812F029FC084BB3F82C21B3
:10318000194B1A80184812F0C4FB0346DAB2174BE9
:103190001A709DE050B50108DB280020E4230020D0
:1031A00018B50108501A002074180020B42300201C
:1031B0007118002058B50108C92800207018002097
:1031C0008423002088180020241A00208918002059
:1031D000851A00205CB5010860B50108CC280020E4
:1031E0006CB5010810250020581A00205A1A00203A
:1031F0000722B349786B13F0E5FB0346002B4FD150
:103200000F220021AF4812F0EFFB7B6B03F10904A2
:103210002C21786B13F0C1FB02467B6B0933D31A68
:103220001A462146A74812F0D1FBA749A548FDF749
:10323000CFFB0346002B0DD0A449A248FDF7C8FBE5
:103240000346002B06D0A2499E48FDF7C1FB03466A
:10325000002B07D19F4B1B7843F00203DAB29D4B42
:103260001A7035E09C499748FDF7B2FB0346002BE6
:1032700006D09A499348FDF7ABFB0346002B07D1D4
:10328000944B1B7843F00403DAB2924B1A701FE0A0
:10329000904B1B7823F00703DAB28E4B1A7017E0BD
:1032A00009228F49786B13F08DFB0346002B0FD159
:1032B0007B6B03F10B048B49786B13F0A8FB024680
:1032C0007B6B0B33D31A1A462146874813F08CFBCD
:1032D0008649002014F0E6F978637B6B002B7FF4BD
:1032E00022AF83498348FDF773FB0346002B02D1CD
:1032F000814B01221A70804B1B78012B5AD17E4BD7
:1033000000221A707D4B01221A707D4B1B78012B15
:1033100003D17C4802F03AFE06E0794B1B78022B81
:1033200002D1794802F001FF754B1B78022B20D1A6
:10333000764B03F5005318331B78002B19D0734BD1
:103340001B7D013BDAB2714B1A75704B1B7D002B54
:103350000FD16E4B03F50053183300221A706B4BDC
:103360001B686B4A5360694B5B68694A1360FEF7E0
:10337000D9FA634B00221A70664B00221A70654B13
:1033800000221A70584B4FF4FA62C3F8902F614B29
:1033900000221A70544B192283F8AF2F524B00228F
:1033A00083F8892F534812F0B4FA03461A465A4B51
:1033B0001A602DE04F4812F0ACFA03461A46564BFD
:1033C0001A60494B93F88A3F0133DAB2464B83F8CF
:1033D0008A2F454B93F88A3F042B05D9FEF76EFEE2
:1033E0004E4B01221A7013E0424812F092FA034643
:1033F0001A46494B1A603C4B192283F8AF2F3A4BBF
:103400000022C3F8A42F384B002283F8892F00BF75
:103410009AE1354B012283F8892F95E140494148D3
:1034200013F0F5FAB861BB69002B00F092803E48BA
:10343000FDF7D8FA03461A4600213B4812F0D4FAA9
:10344000BB691C1DBB6904332649184614F02AF9D0
:1034500003461846FDF7C6FA03461A462146324887
:1034600012F0B4FA3048FDF7BDFA03462F4A136054
:103470002D4812F04EFA03461A461B4BC3F8A02FF4
:10348000194BD3F8A03F2A4A934255D8294B012221
:103490001A70154BD3F8A03F002B0AD0124BD3F86B
:1034A000A03F184600F0B2FC0F4B012283F8892F91
:1034B0004AE1062001F094FE00F0ACFD44E100BFBB
:1034C00070B50108B40F002078B5010880B5010877
:1034D00088B50108861A002090B501089CB501083E
:1034E000A8B5010818B50108E42300205CB501085F
:1034F000B4B50108CC280020541A00201E1A002060
:1035000070180020B4230020842300204C370020B2
:10351000B021002088180020281A002089180020D7
:10352000C4B50108DB2800209C0F0020441A0020AD
:1035300030EC01002C1A0020BB4B002283F8892FAD
:10354000B94B032283F8AE2FB74B192283F8AF2F64
:10355000FAE0B54B002283F8892FB34B032283F89E
:10356000AE2FB14B192283F8AF2FEDE0AF49B04831
:1035700013F04DFAF861FB69002B04D0AA4B01222D
:1035800083F8892FE0E0A84B002283F8892FA64B0F
:10359000032283F8AE2FA44B192283F8AF2FD3E078
:1035A000A44B1B78002B00F0BC804FF400414FF07F
:1035B00090400BF075FDA04B1B68002B71D14FF4B0
:1035C000FA6200219D4812F00FFA9C4A964B104671
:1035D00003F202534FF4FA62194612F0F7F9984BCE
:1035E0001B68002B36D105F0F7FE06F071F8034694
:1035F0001946002005F0F2FF0346012B05D00820F4
:1036000001F0EEFD00F006FD9EE001218B4805F083
:10361000F5FE03468B4A13608A4B1B68012B13D1BE
:10362000874B01221A60804BD3F8A03F184600F068
:10363000EDFB40F68C2200217D4812F0D5F97A4B43
:103640001E2283F8AF2F27E0092001F0C9FD00F00A
:10365000E1FC79E00021794805F0D0FE0346794A83
:103660001360784B1B68012B10D16F4BD3F8A03F30
:10367000184600F0CBFB40F68C2200216C4812F07B
:10368000B3F9694B1E2283F8AF2F05E0092001F042
:10369000A7FD00F0BFFC57E0634B002283F8892FA1
:1036A00051E0654B1B68012B4DD1654B1B68002B0E
:1036B00001D105F091FE0021604805F09FFE034610
:1036C000604A13605F4B1B68012B24D106F000F8A1
:1036D0000346184606F01AF80346002B15D1554B41
:1036E00000221A70564B1B68012B02D1544B00224A
:1036F0001A60002001F074FD534B01221A7000F093
:1037000089FC4F4B01221A601DE0092001F068FD81
:1037100000F080FC18E0092001F062FD00F07AFC66
:1037200012E000224FF400414FF090400BF088FC73
:1037300009E000224FF400414FF090400BF080FC74
:1037400002E000BF00E000BF374B0022C3F8A82F03
:10375000354B012283F8AD2F334B002283F8AC2F79
:10376000314B052283F8852F2F4B0022C3F8A42F5D
:10377000364B00221A602C4B0022C3F8A82F2A4B8C
:1037800093F8AF3F1F2B05D040F68C22002128482C
:1037900012F02AF9244B93F8893F012B75D1224B63
:1037A0004FF47A72C3F8902F1F4B93F8AF3F013359
:1037B000DAB21D4B83F8AF2F67E01B4B0022C3F832
:1037C000A82F194B012283F8AC2F40F68C22002140
:1037D000174812F009F91D4B00221A6055E0124BF0
:1037E000D3F8A43F002B54D10F4B93F8853F013BF6
:1037F000DAB20D4B83F8852F0B4B93F8853F002BE6
:1038000028D140F68C220021094812F0EDF8064B31
:1038100093F8AE3FDBB2032B02D10D4B01221A709D
:10382000FEF74CFC29E000BFE4230020CCB50108E2
:10383000DB2800202C1A00203C1A0020CC07002096
:10384000401A00204C1A002078180020BC1A0020D2
:1038500089180020114B012283F8AD2F0F4B002255
:1038600083F8AC2F40F68C2200210D4812F0BCF8F2
:103870000A4B4FF47A72C3F8902F084B0022C3F81A
:10388000A42F084B00221A6003E000BF01E000BF34
:1038900000E000BF00BF4437BD4690BDE4230020D8
:1038A000DB280020BC1A0020B0B588B000AF002390
:1038B000BB61A54802F0CBFB0346002B13D1A24B02
:1038C0005B68A14A023352F82330002B0BD09F4B88
:1038D00001221A709C4B5B689B4A023352F82330DA
:1038E0009B4A136018E09B4802F080FC0346002BC3
:1038F00012D1984B5B68974A023352F82330002B61
:103900000AD0924B02221A70924B5B68914A0233A2
:1039100052F823308E4A13608D4B1B681846FDF712
:1039200061F8F861FB69002B03D18B48FDF75AF869
:10393000F86100233B603B1D00221A605A60C3F807
:10394000072000237B6100233B610023FB730622D9
:103950000021824812F048F8FA220021804812F033
:1039600043F8FB690A227D49184612F01DF87C4A8B
:103970007C4B14461D460FCD0FC495E80300206014
:10398000043421707648FDF72DF803461A46744B2F
:10399000134475491A460B461B8813806C4B1B68F1
:1039A0005F21184612F0F9FF78617B6901332C2101
:1039B000184612F0F2FF38613A697B69D31AFB733B
:1039C0003B460F220021184612F00EF87B69591C65
:1039D000FB7B013B1A463B46184611F0F7FF5B4B59
:1039E0001B78012B74D13B4660491846FCF7F0FF69
:1039F0000346002B15D15A48FCF7F4FF03461A463C
:103A0000574B13445A4A1D4614460FCC2860696030
:103A1000AA60EB6007CC28616961AA612388AB8347
:103A2000C9E03B4653491846FCF7D2FF0346002B3A
:103A300017D14B48FCF7D6FF03461A46484B1344B0
:103A40004D4A1D4614460FCC28606960AA60EB60A1
:103A500003CC286169612388A2782B831346AB7657
:103A6000A9E03B4645491846FCF7B2FF0346002B48
:103A700016D13B48FCF7B6FF03461A46384B1344B1
:103A80003F4A1C4615460FCD20606160A260E3608E
:103A900028682061AB88AA79A3821346A3758AE0BF
:103AA0002F48FCF79FFF03461A462D4B1344324A1A
:103AB0001D4614460FCC28606960AA60EB6003CCF9
:103AC000286169612388A2782B831346AB7672E064
:103AD0001E4B1B78022B57D10023BB611C4B1B686C
:103AE0002249184612F093FFB861BB69002B14D12C
:103AF0001B48FCF777FF03461A46194B1344214A2B
:103B00001D4614460FCC28606960AA60EB6003CCA8
:103B10002861696123882B834DE01148FCF762FF1F
:103B200003461A460E4B1344114A1D4614460FCC49
:103B300028606960AA60EB6007CC28616961AA61AE
:103B40002388AB8337E000BFB42300207018002027
:103B5000540000208423002034180020A40F0020EB
:103B60008C180020D4B50108C8B40108ECB50108D0
:103B7000CCBC0108F8B50108B0BC010800B60108CA
:103B8000ECBC010804BD01082548FCF72BFF0346E7
:103B90001A46234B1344234A1D4614460FCC286073
:103BA0006960AA60EB6003CC286169612388A27810
:103BB0002B831346AB761A48FCF714FF03461A46CC
:103BC000174B1344184A1188927819809A70174934
:103BD000134812F0D3FE1248FCF704FF03461A46BE
:103BE0000F4B1344124A1C4615460FCD20606160EE
:103BF000A260E3600FCD20616161A261E3610848CA
:103C0000FCF7F0FE03461A46054B1344094A118897
:103C1000927819809A7000BF2037BD46B0BD00BFB2
:103C20008C180020B0BC010804B60108A40F0020C5
:103C300008B6010818B5010880B500AF654B1B68D0
:103C4000012B00F0C580644B1B78303BDBB21A4679
:103C5000920013445B00DAB25F4B5B781344DBB233
:103C6000303BDAB25D4B1A705B4B1B78A3F130022C
:103C700013469B0013445B001A46574B5B78303B5E
:103C800013441A46564B1A60534BDB78A3F13002AB
:103C900013469B0013445B001A464F4B1B79303B85
:103CA00013441A464F4B1A604B4B9B79A3F13002D9
:103CB00013469B0013445B001A46474BDB79303BAD
:103CC00013441A46484B1A60434B5B7AA3F1300207
:103CD00013469B0013445B001A463F4B9B7A303BD4
:103CE00013441A46414B1A603B4B1B7BA3F1300235
:103CF00013469B0013445B001A46374B5B7B303BFB
:103D000013441A463A4B1A60334BDB7BA3F1300263
:103D100013469B0013445B001A462F4B1B7C303B21
:103D200013441A46334B1A602D4B1B68184606F095
:103D300015FA0346DAB2304BDA702A4B1B68184684
:103D400006F00CFA0346DAB22B4B5A70264B1B686E
:103D5000184606F003FA0346DAB2274B9A70234B53
:103D60001B68184606F0FAF90346DAB2234B1A70BC
:103D70001F4B1B68184606F0F1F90346DAB21F4BD9
:103D80005A701C4B1B68184606F0E8F90346DAB275
:103D90001A4B9A701A4A184B1B681360134B1B6816
:103DA000184A1360124B1B68164A5360114B1B686C
:103DB000144A93600122114913480EF053FD012269
:103DC0000D4911480EF004FF024B01221A6000E079
:103DD00000BF80BD50210020B0070020601A0020E5
:103DE0005C1A0020641A0020681A00206C1A002057
:103DF000701A0020741A0020107100201471002025
:103E0000B02300202021002028370020B0B582B048
:103E100000AF78607B68002B00F0AC80584B1B68CB
:103E2000002B1FD17B68574AA2FB0323DB09564AAC
:103E300013607A68534BA3FB0213DB094FF4FA615A
:103E400001FB03F3D31A514A13600A2250494FF47D
:103E5000FA6011F0A9FD4D4B1B680A224D49184626
:103E600011F0A2FD4C4A4D4B14461D460FCD0FC418
:103E70002B68238006220021494811F0B5FD404BF4
:103E80001A68414B1B689A4236D23D4B1B684FF46F
:103E9000FA6202FB03F30A224149184611F084FD3D
:103EA0003F493D4812F06AFD3B48FCF79BFD034645
:103EB0001A46394B13443B491A460B461B8813805C
:103EC0003349354812F05AFD3348FCF78BFD034661
:103ED0001A46314B1344344A1188927819809A70EB
:103EE000274B1B680133264A1360304B4FF4FA62AC
:103EF000C3F8A02F02233EE0234B1B684FF4FA6265
:103F000002FB03F30A222649184611F04DFD24490D
:103F1000214812F033FD2048FCF764FD03461A46A1
:103F20001D4B13441F491A460B461B881380194921
:103F3000194812F023FD1848FCF754FD03461A46B1
:103F4000154B1344184A1188927819809A700F4BB8
:103F50001B68164AC2F8A03F094B00221A600A4BA0
:103F600000221A60094B00221A60114B01221A60CC
:103F7000012300E0002318460837BD46B0BD00BF4E
:103F8000301A0020D34D6210341A0020381A002055
:103F9000D80F0020AC0F00207802002028B60108BE
:103FA000A40F00201CB5010818B50108E423002067
:103FB0003C1A002080B582B000AF1148FCF712FD1A
:103FC00078601049104812F0D9FC7B680A220F492A
:103FD000184611F0E9FC0D490B4812F0CFFC0A48D5
:103FE000FCF700FD03461A46074B1344084A1068C5
:103FF000186092889A8000BF0837BD4680BD00BF18
:104000008819002054020020AC020020A40F0020D8
:104010003CB6010880B500AF40F68C22002115485F
:1040200011F0E2FC00224FF400414FF090400BF001
:1040300007F8114B00221A60104B00221A60104B37
:1040400000221A600F4B00221A700F4B00221A70C8
:104050000E4B00221A600E4B002283F8892F0C4B66
:10406000032283F8AE2F0A4B192283F8AF2F00BF2B
:1040700080BD00BFDB280020301A0020341A002049
:10408000381A0020711800202C1A0020401A002035
:10409000E423002080B500AF1B4B1C4A1A601A4B6A
:1040A0001B4A5A60184B00229A60174B0122DA60B3
:1040B000154B00221A61144B00225A61124B002248
:1040C0009A61114B0022DA610F4B00221A620E48EE
:1040D0000BF026F80346002B01D000F04EFA002129
:1040E00009480CF0DFFB0346002B01D000F045FA35
:1040F000002105480CF046FC0346002B01D000F0DF
:104100003CFA00BF80BD00BFC43600200054004010
:10411000EC9C901080B5A2B000AF786007F17403FA
:1041200000221A605A609A60DA601A6107F114037B
:1041300060220021184611F057FC7B681B68274A53
:10414000934247D140237B6100237B6407F1140332
:1041500018460DF069FD0346002B01D000F00DFA62
:104160001F4BDB6C1E4A43F00203D3641C4BDB6C19
:1041700003F002033B613B69C0237B671223BB67EB
:104180000023FB670323C7F880300423C7F884307B
:1041900007F17403194613480AF0DCFB104B9B6DC2
:1041A0000F4A43F4001393650D4B9B6D03F400130A
:1041B000FB60FB68002204211F2009F077FC1F2010
:1041C00009F0A0FC00220421202009F06FFC20202F
:1041D00009F098FC00BF8837BD4680BD0054004000
:1041E000001002400004004880B500AF0B4B0C4AA1
:1041F0001A600A4B06225A60084B40F6FF72DA60DA
:10420000064B40F6FF729A6004480CF027FC034608
:10421000002B01D000F0B1F900BF80BD183700209D
:104220000030004080B489B000AF78607B68FB60EC
:10423000FB6853E8003FBB60BB6843F02003FB61B1
:104240007B68FA69BA617B617969BA6941E80023E0
:104250003B613B69002BE9D100BF00BF2437BD465D
:104260005DF8047B7047000080B500AF06F0F1F800
:1042700000F032F9FDF762FEFDF706FEFDF7A0FB48
:10428000FDF7CEFCFFF7B0FFFFF704FF01F0CAFF18
:1042900002F02CFE03F084F803F0E6F903F0E0FAF4
:1042A00003F060FAFDF780FD764810F0CDF876480F
:1042B000FFF7B8FF754B002283F8B02F744B4EF612
:1042C00060221A60734B1B7863F07F03DAB2714B84
:1042D0001A70714B00225A606F4B00221A60FDF772
:1042E000BDFA6D4B1B686D4A53606B4B5B686B4A44
:1042F0001360002002F0F6FB02F06CFD674B03F543
:104300000053183300221A70644B03F5005317331F
:1043100000221A70614B03F50053193300221A7002
:104320005F4801F0DBFD5F4801F0ACFE03F05EFB8F
:104330005D480CF021FC4FF480515C480AF0B0FE5F
:104340005B4B1B78002B07D003F0AAFD584B0022D3
:104350001A70012000F044FF03F07CFC01F0F6FF2E
:1043600004F096F804F0A0FA05F030FB514B1B78EE
:10437000002B07D04A4801F06AFE0346012B01D109
:1043800002F0ECFF424B1B68002B17D14A4B1B6815
:10439000002B13D100F002F903461946404801F002
:1043A000ADFD464B1B78002B04D0394B42F2107206
:1043B0001A6003E0364B4EF660221A60334BD3F896
:1043C000903F3F4A934204D9304B4FF4FA62C3F80E
:1043D000902F3C4B1B68002B01D1FDF76FFEFEF7C1
:1043E00097F8394B1B78012B01D103F023FB03F025
:1043F000B7FA364B1B68002B9AD1002208212B48B4
:104400000AF01EFE324B1B78032B10D8314B1B7861
:10441000012B0CD14FF400414FF090400AF040FEC8
:104420002B4B1B780133DAB2294B1A7005E0284B6D
:1044300000221A70274B00221A7010211B480AF024
:10444000D9FD0346012B03D11C4B00221A7013E047
:10445000102116480AF0CEFD0346002B0CD1174B55
:1044600001221A700A4B1B6842F21072934203D960
:10447000074B42F210721A60144B4FF47A721A60B2
:1044800056E700BFD057002000380140E423002049
:1044900058210020861A0020B02100204C3700202F
:1044A000B423002084230020183700200004004893
:1044B000DE0F00207818002074180020D42000207F
:1044C000C0D4010070210020711800206421002058
:1044D000841A0020551A002080B596B000AF07F16D
:1044E000140344220021184611F07EFA3B460022B4
:1044F0001A605A609A60DA601A614FF400700CF02A
:1045000059FB0346002B01D000F037F809237B61EB
:104510004FF48033BB610123BB620223FB6303239F
:104520003B6405237B642023BB640723FB640223D5
:104530003B6502237B6507F1140318460CF09CFBD6
:104540000346002B01D000F018F80F233B60032333
:104550007B600023BB600023FB6000233B613B4684
:10456000042118460DF0D4F80346002B01D000F0CA
:1045700004F800BF5837BD4680BD80B400AF72B6A6
:1045800000BFFEE780B483B000AF7860396000BF41
:104590000C37BD465DF8047B70470000B0B584B0B1
:1045A00000AF4FF4006011F001FA0346FB600023F6
:1045B0007B600023BB60FB68002B00F0CC814FF4D4
:1045C00000620021F86811F00FFAFB68BD491A4635
:1045D0000B461B881380F868FCF704FA03461A465A
:1045E000FB681344B8491A460B461B881380B74929
:1045F000F86812F0C3F9F868FCF7F4F903461A46B4
:10460000FB681344B0491A460B461B881380F868B0
:10461000FCF7E8F903461A46FB681344AC4A1C460B
:1046200015460FCD20606160A260E3600FCD206170
:104630006161A261E361F86801F06EFBF868FCF764
:10464000D1F903461A46FB681344A2491A460B46A1
:1046500003CB106051601B781372F868FCF7C2F945
:1046600003461A46FB68134497491A460B461B88B3
:104670001380F86800F000FBF868FCF7B3F9034614
:104680001A46FB681344944A1188927819809A70EC
:10469000F868FCF7A7F903461A46FB6813448F4AEB
:1046A00010681860F868FCF79DF903461A46FB6825
:1046B000134485491A460B461B881380884B1B7888
:1046C000002B4FD08748FCF78DF903461A4600218E
:1046D000844811F089F900F04DFB8349F86812F025
:1046E0004DF9F868FCF77EF903461A46FB68134457
:1046F00075491A460B461B8813807C49F86812F0EE
:104700003DF9F868FCF76EF903461A46FB68134456
:104710006D491A460B461B8813807549F86812F0DC
:104720002DF9F868FCF75EF903461A46FB68134456
:1047300065491A460B461B8813806E49F86812F0CB
:104740001DF9F868FCF74EF903461A46FB68134456
:104750005D491A460B461B8813806749F86812F0BA
:104760000DF905E0654B1B681946F86812F006F96B
:10477000F868FCF737F903461A46FB6813445249B8
:104780001A460B461B8813805D4B1B7818463B1D51
:104790000A22194611F008F93B1D1946F86812F073
:1047A000EDF8574B1B785BB2002B06DA544B1B78A5
:1047B00003F07F03DAB2524B1A70514B1B7803F0AF
:1047C0004003002B06D04E4B1B7823F04003DAB297
:1047D0004B4B1A70F868FCF705F903461A46FB685C
:1047E000134439491A460B461B881380454BD3EDB9
:1047F000027AB0EE670A01F0D9FA4349F86812F07C
:10480000BDF8F868FCF7EEF803461A46FB68134457
:104810002D491A460B461B8813803A4BD3ED037A79
:10482000B0EE670A01F0C2FA3749F86812F0A6F84C
:10483000F868FCF7D7F803461A46FB681344224988
:104840001A460B461B881380F968012000F090F887
:10485000F968022000F08CF8F968032000F088F86D
:10486000F968042000F084F8F968052000F080F869
:10487000F968062000F07CF8F968072000F078F865
:10488000F968082000F074F8F968092000F070F861
:10489000F9680A2000F06CF8F9680B2000F068F85D
:1048A000F9680C2000F064F8F9680D2000F060F859
:1048B000164B1B78002B2BD01449F86812F05EF8C9
:1048C0002CE000BF70B6010874B60108000000209B
:1048D00078B6010898B60108A4B60108A8B6010880
:1048E000E42300207A240020901A0020981A002047
:1048F000A41A0020881A0020B01A0020E00F00201F
:10490000861A00201C580020E80F002010250020E7
:10491000134B1B681946F86812F030F8F868FCF77A
:1049200061F803461A46FB6813440E491A460B46C3
:104930001B881380F868FCF755F803461A46FB6895
:10494000134409491A460B461B881380074B012262
:104950001A60FB6800E0002318461037BD46B0BD62
:10496000E40F002074B60108ACB60108F00F002077
:10497000B0B588B000AF786039600023BB6007F144
:104980000C0300221A605A609A60DA600023FB77F9
:10499000B24A7B6852F82330002B29D03868FCF7E4
:1049A00021F803461A463B681344AD4A1068186064
:1049B00012791A71A94A7B6852F82330184607F118
:1049C00008031022194610F0EFFF07F108031946FB
:1049D000386811F0D3FF3868FCF704F803461A462C
:1049E0003B6813449F491A460B461B8813800FE00F
:1049F0003868FBF7F7FF03461A463B6813449A4AA8
:104A00001C46134607CB20606160A2601B88A3810F
:104A1000964A7B68DB001344D3E90023134300F07C
:104A2000FF80924A7B68DB001344D3E900014FF01A
:104A300000024FF000030A0E00231346FB77FA7FB3
:104A400007F108038A49184611F078FF0023FB7725
:104A500007F108031946386811F090FF834A7B6814
:104A6000DB001344D3E900014FF000024FF00003D4
:104A70000A0C00231346FB77FA7F07F108037C49F1
:104A8000184611F05BFF0023FB7707F10803194676
:104A9000386811F073FF754A7B68DB001344D3E973
:104AA00000014FF000024FF000030A0A00231346F2
:104AB000FB77FA7F07F108036D49184611F03EFFB6
:104AC0000023FB7707F108031946386811F056FFF9
:104AD000664A7B68DB001344D3E900014FF0000213
:104AE0004FF000030A0000231346FB77FA7F07F11B
:104AF00008035F49184611F021FF0023FB7707F1F7
:104B000008031946386811F039FF584A7B68DB0002
:104B10001344D3E900014FF000024FF00003020EEE
:104B200042EA01220B0E1346FB77FA7F07F10803D6
:104B30004F49184611F002FF0023FB7707F10803E5
:104B40001946386811F01AFF484A7B68DB001344A5
:104B5000D3E900014FF000024FF00003020C42EADB
:104B600001420B0C1346FB77FA7F07F1080340491B
:104B7000184611F0E3FE0023FB7707F108031946FE
:104B8000386811F0FBFE394A7B68DB001344D3E937
:104B900000014FF000024FF00003020A42EA0162F6
:104BA0000B0A1346FB77FA7F07F1080330491846D2
:104BB00011F0C4FE0023FB7707F10803194638689B
:104BC00011F0DCFE294A7B68DB001344D3E90023A3
:104BD0001346FB77FA7F07F108032549184611F0C1
:104BE000ADFE0023FB7707F108031946386811F082
:104BF000C5FE3868FBF7F6FE03461A463B681344C9
:104C000018491A460B461B881380184A7B68DB003C
:104C1000D1184FF000024FF00003C1E9002318E063
:104C2000124A7B68DB001344D3E90023134310D1FD
:104C30003868FBF7D7FE03461A463B6813440D4A13
:104C40001D4614460FCC28606960AA60EB6023887B
:104C50002B8200BF2037BD46B0BD00BF0010002032
:104C6000B0B6010874B60108B8B60108401B0020B0
:104C7000C8B60108D0B6010880B582B000AF786030
:104C800005F00AFA3149786811F078FE7868FBF788
:104C9000A9FE03461A467B6813442D491A460B4663
:104CA0001B8813802B49786811F068FE7868FBF741
:104CB00099FE03461A467B68134425491A460B465B
:104CC0001B8813802449786811F058FE7868FBF738
:104CD00089FE03461A467B68134420491A460B4650
:104CE0001B8813801E49786811F048FE7868FBF72E
:104CF00079FE03461A467B6813441A491A460B4646
:104D00001B8813801849786811F038FE7868FBF723
:104D100069FE03461A467B68134412491A460B463D
:104D20001B8813801149786811F028FE7868FBF71A
:104D300059FE03461A467B6813440D491A460B4632
:104D40001B88138000BF0837BD4680BD501400206B
:104D5000E4B601084C14002044140020E8B6010811
:104D600054140020ECB60108581400205C140020F4
:104D700074B6010880B586B000AF00237B610023C4
:104D80003B610023FB7300237B6102E07B690133FD
:104D90007B61904A7B6913441B782C2BF6D13B69CD
:104DA0005A1C3A618B497A690A441178894A13443A
:104DB0000A4683F896207B6901337B61854A7B69CB
:104DC00013441B782C2B2AD019E0824A7B691344A8
:104DD0001978804A3B69134496330A461A70FB7B64
:104DE0007C497A690A4411787B4AD154FB7B0133B0
:104DF000FB733B6901333B617B6901337B61754A1E
:104E00007B6913441B782E2BDFD102E07B690133D1
:104E10007B61704A7B6913441B782C2BF6D13B696C
:104E20005A1C3A616B497A690A441178694A1344F9
:104E30000A4683F896207B6901337B61654A7B696A
:104E400013441B78412B0AD101224FF400414FF04B
:104E500090400AF0F5F8614B01225A700DE00022F3
:104E60004FF400414FF090400AF0EAF85B4B00220B
:104E70005A7002E07B6901337B61564A7B691344B7
:104E80001B782C2BF6D17B6901337B610023FB73EC
:104E90000A220021524810F0A7FD19E04D4A7B6913
:104EA000134419784B4A3B69134496330A461A70E7
:104EB000FB7B5A1CFA731946464A7B6913441A78DD
:104EC000474B5A543B6901333B617B6901337B613A
:104ED000404A7B6913441B782C2BDFD1404B1B7855
:104EE000002B3AD04FF00003BB603E4810F00EFD9F
:104EF00053EC102B10461946FCF786FA0346BB60AC
:104F000097ED027ADFED386AC7EE267AC7ED027AAE
:104F1000334B1B78A3F1300213469B0013445B0014
:104F20001A462F4B5B78303B134407EE903AF8EE6D
:104F3000E77A97ED027A77EE277AC7ED027A0A22AE
:104F40000021274810F050FDB868FBF70DFF02461E
:104F50000B462649224811F0F1FC3B695A1C3A6184
:104F60001C497A690A4411781A4A13440A4683F89C
:104F700096207B6901337B610FE0164A7B691344FD
:104F80001978144A3B69134496330A461A703B69F0
:104F900001333B617B6901337B610E4A7B691344BA
:104FA0001B782C2BE9D13B695A1C3A6109497A6973
:104FB0000A441178074A13440A4683F896207B690D
:104FC00001337B610023FB730A220021084810F0A3
:104FD0000BFD29E0E4230020901A00201820002077
:104FE000981A00209A1A002000007042F0B60108BA
:104FF000A41A0020734A7B6913441978714A3B69EB
:10500000134496330A461A70FB7B5A1CFA731946EE
:105010006C4A7B6913441A786B4B5A543B690133D1
:105020003B617B6901337B61664A7B6913441B7872
:105030002C2BDFD1644B1B78002B40D04FF00003AA
:105040007B60624810F062FC53EC102B104619464E
:10505000FCF7DAF903467B6097ED017ADFED5C6AD5
:10506000C7EE267AC7ED017A574B1B78303B642296
:1050700002FB03F1544B5B78A3F1300213469B0013
:1050800013445B00CA18504B9B78303B134407EE27
:10509000903AF8EEE77A97ED017A77EE277AC7ED46
:1050A000017A0A220021484810F09EFC7868FBF73C
:1050B0005BFE02460B464749434811F03FFC3B6903
:1050C0005A1C3A613F497A690A4411783D4A1344AF
:1050D0000A4683F896207B6901337B610FE0394AE9
:1050E0007B6913441978374A3B69134496330A465F
:1050F0001A703B6901333B617B6901337B61314A43
:105100007B6913441B782C2BE9D13B695A1C3A610B
:105110002C497A690A4411782A4A13440A4683F8CA
:1051200096207B6901337B610023FB730CE0FB7BE2
:105130005A1CFA731946234A7B6913441A78264B82
:105140005A547B6901337B611E4A7B6913441B7887
:105150002C2BECD17B6901337B6102E07B6901334D
:105160007B61184A7B6913441B782C2BF6D17B6931
:1051700001337B610023FB7319E0124A7B691344FE
:105180001978104A3B69134496330A461A70FB7B20
:105190005A1CFA7319460B4A7B6913441A780F4B51
:1051A0005A543B6901333B617B6901337B61054A9A
:1051B0007B6913441B782C2BDFD100BF00BF18374D
:1051C000BD4680BDE4230020A41A0020A71A0020B9
:1051D00000007042F0B60108B01A0020881A0020C2
:1051E00080B582B000AF0346FB71FB79184600F032
:1051F0000BF803461946034800F080FE00BF08374D
:10520000BD4680BDB4230020B0B584B000AF0346D6
:10521000FB714FF4006010F0C9FB0346FB60FB68B4
:10522000002B00F091804FF400620021F86810F02C
:10523000DBFBFB6847491A460B461B881380F8685E
:10524000FBF7D0FB03461A46FB68134442491A4653
:105250000B461B8813804149F86811F08FFBF868F2
:10526000FBF7C0FB03461A46FB6813443A491A464B
:105270000B461B881380F868FBF7B4FB03461A46FD
:10528000FB681344364A1C4615460FCD206061600A
:10529000A260E3600FCD20616161A261E361F86803
:1052A00000F03AFDF868FBF79DFB03461A46FB68E1
:1052B00013442C4A1C46134607CB20606160A26051
:1052C000F868FBF78FFB03461A46FB681344224934
:1052D0001A460B461B881380F868FFF7CDFCF86868
:1052E000FBF780FB03461A46FB6813441E4A1188ED
:1052F000927819809A70F868FBF774FB03461A4697
:10530000FB681344194A10681860F868FBF76AFBD9
:1053100003461A46FB6813440F491A460B461B887E
:105320001380FB791946F86800F024F8F868FBF759
:1053300059FB03461A46FB6813440D491A460B46AF
:105340001B881380FB6800E0002318461037BD4619
:10535000B0BD00BF70B6010874B60108000000209F
:1053600078B60108F8B60108A4B60108A8B6010885
:10537000ACB60108B0B588B000AF78600B46FB70E2
:105380000023FB6007F1100300221A605A609A6044
:10539000DA60FB78632B00F2598401A252F823F003
:1053A000315500089B5500084D5C0008BF550008AA
:1053B0002356000875560008555700082158000864
:1053C000A558000809590008D95900083D5A000895
:1053D000A15A0008055B0008E95B00084D5C000865
:1053E0004D5C00084D5C00084D5C00084D5C0008F9
:1053F0004D5C00084D5C00084D5C00084D5C0008E9
:105400004D5C00084D5C00084D5C00084D5C0008D8
:105410004D5C00084D5C00084D5C00084D5C0008C8
:105420004D5C00084D5C00084D5C00084D5C0008B8
:105430004D5C00084D5C00084D5C00084D5C0008A8
:105440004D5C00084D5C00084D5C00084D5C000898
:105450004D5C00084D5C00084D5C00084D5C000888
:105460004D5C00084D5C00084D5C00084D5C000878
:105470004D5C00084D5C00084D5C00084D5C000868
:105480004D5C00084D5C00084D5C00084D5C000858
:105490004D5C00084D5C00084D5C00084D5C000848
:1054A0004D5C00084D5C00084D5C00084D5C000838
:1054B0004D5C00084D5C00084D5C00084D5C000828
:1054C0004D5C00084D5C00084D5C00084D5C000818
:1054D0004D5C00084D5C00084D5C00084D5C000808
:1054E0004D5C00084D5C00084D5C00084D5C0008F8
:1054F0004D5C00084D5C00084D5C00084D5C0008E8
:105500004D5C00084D5C00084D5C00084D5C0008D7
:105510004D5C00084D5C00084D5C00084D5C0008C7
:105520004D5C00084D5C00084D5C00081B5C0008E9
:105530007868FBF757FA03461A467B681344AC4A6F
:105540001188927819809A707868FBF74BFA0346B5
:105550001A467B681344A7491A460B461B881380DA
:10556000FB7807F10C010A22184610F01DFA07F12A
:105570000C031946786811F001FA7868FBF732FAE3
:1055800003461A467B6813449A491A460B461B8801
:105590001380994B01221A7071E37868FBF722FAA5
:1055A00003461A467B681344944A1C46134607CBAD
:1055B00020606160A260786800F072FB5FE3786849
:1055C000FBF710FA03461A467B6813448C4A11888D
:1055D000927819809A707868FBF704FA03461A46A5
:1055E0007B68134483491A460B461B881380FB785B
:1055F00007F10C010A22184610F0D6F907F10C0346
:105600001946786811F0BAF97868FBF7EBF90346A8
:105610001A467B68134477491A460B461B88138049
:105620002DE37868FBF7DEF903461A467B681344DE
:10563000744A1188927819809A707868FBF7D2F9C9
:1056400003461A467B6813446A491A460B461B8870
:1056500013806D49786811F091F97868FBF7C2F909
:1056600003461A467B68134462491A460B461B8858
:10567000138004E37868FBF7B5F903461A467B68A4
:1056800013445F4A1188927819809A707868FBF702
:10569000A9F903461A467B68134456491A460B4635
:1056A0001B881380FB7807F10C010A22184610F0C2
:1056B0007BF907F10C031946786811F05FF97868F7
:1056C000FBF790F903461A467B68134449491A468A
:1056D0000B461B8813807868FBF784F903461A464B
:1056E0007B681344494A1C4615460FCD2060616013
:1056F000A260E3607868FBF775F903461A467B6899
:1057000013443C491A460B461B8813807868FBF704
:1057100069F903461A467B6813443D4A1D46144600
:105720000FCC28606960AA60EB6003CC28616961D6
:105730002388A2782B831346AB767868FBF752F95F
:1057400003461A467B6813442A491A460B461B88AF
:10575000138094E27868FBF745F903461A467B68A4
:105760001344274A1188927819809A707868FBF759
:1057700039F903461A467B6813441E491A460B46FC
:105780001B881380FB7807F10C010A22184610F0E1
:105790000BF907F10C031946786811F0EFF87868F7
:1057A000FBF720F903461A467B681344194A1C4646
:1057B00015460FCD20606160A260E360286820611B
:1057C000AB88AA79A3821346A3751349786811F0B0
:1057D000D5F87868FBF706F903461A467B68134448
:1057E0000E491A460B4603CB1060516047E200BFDA
:1057F00004B7010874B60108B61A002008B70108FA
:1058000014B7010818B70108881900201CB701084F
:105810002CB7010848B701089C0F002060B70108A9
:105820007868FBF7DFF803461A467B681344C44ADE
:105830001188927819809A707868FBF7D3F803463C
:105840001A467B681344BF491A460B461B881380CF
:10585000FB7807F10C010A22184610F0A5F807F1B1
:105860000C031946786811F089F87868FBF7BAF8E4
:1058700003461A467B681344B2491A460B461B88F6
:105880001380B149786811F079F87868FBF7AAF8C5
:1058900003461A467B681344AA491A460B461B88DE
:1058A0001380ECE17868FBF79DF803461A467B68A5
:1058B0001344A34A1188927819809A707868FBF78C
:1058C00091F803461A467B6813449E491A460B46D4
:1058D0001B881380FB7807F10C010A22184610F090
:1058E00063F807F10C031946786811F047F87868F7
:1058F000FBF778F803461A467B68134491491A4629
:105900000B461B881380BAE17868FBF76BF80346F7
:105910001A467B6813448A4A1188927819809A70D3
:105920007868FBF75FF803461A467B68134485499D
:105930001A460B461B881380FB7807F10C010A22DC
:10594000184610F031F807F10C031946786811F089
:1059500015F87868FBF746F803461A467B68134447
:1059600078491A460B461B881380784B1B681846EB
:1059700007F10C030A22194610F016F807F10C0380
:105980001946786810F0FAFF7868FBF72BF80346A1
:105990001A467B6813446E4A1188927819809A706F
:1059A0006C4B1B68184607F10C030A2219460FF0CE
:1059B000FBFF07F10C031946786810F0DFFF7868E9
:1059C000FBF710F803461A467B6813445D491A46F4
:1059D0000B461B88138052E17868FBF703F80346F7
:1059E0001A467B681344564A1188927819809A7037
:1059F0007868FAF7F7FF03461A467B681344514963
:105A00001A460B461B881380FB7807F10C010A220B
:105A100018460FF0C9FF07F10C031946786810F01B
:105A2000ADFF7868FAF7DEFF03461A467B68134439
:105A300044491A460B461B88138020E17868FAF720
:105A4000D1FF03461A467B6813443D4A1188927879
:105A500019809A707868FAF7C5FF03461A467B6882
:105A6000134438491A460B461B881380FB7807F10C
:105A70000C010A2218460FF097FF07F10C03194694
:105A8000786810F07BFF7868FAF7ACFF03461A4697
:105A90007B6813442B491A460B461B881380EEE0A3
:105AA0007868FAF79FFF03461A467B681344244A36
:105AB0001188927819809A707868FAF793FF0346F4
:105AC0001A467B6813441F491A460B461B881380ED
:105AD000FB7807F10C010A2218460FF065FF07F169
:105AE0000C031946786810F049FF7868FAF77AFFD6
:105AF00003461A467B68134412491A460B461B8814
:105B00001380BCE0144B1B78012B29D17868FAF77D
:105B100069FF03461A467B681344104A10681860F0
:105B20000D4B1B78184607F10C030A2219460FF09B
:105B30003BFF07F10C031946786810F01FFF46E0A1
:105B400014B7010874B601089C0F0020301A002019
:105B500068B70108341A0020DC1A00206CB701086D
:105B6000494B1B78002B19D17868FAF73BFF0346A5
:105B70001A467B681344454A10681860424B1B78EC
:105B8000184607F10C030A2219460FF00DFF07F122
:105B90000C031946786810F0F1FE18E07868FAF7FF
:105BA00021FF03461A467B681344394A106818607F
:105BB000354B1B78184607F10C030A2219460FF0E3
:105BC000F3FE07F10C031946786810F0D7FE7868E9
:105BD000FAF708FF03461A467B6813442D491A4614
:105BE0000B461B8813804AE07868FAF7FBFE0346F1
:105BF0001A467B681344284A1188927819809A7053
:105C00007868FAF7EFFE03461A467B681344214989
:105C10001A460B461B88138031E07868FAF7E2FEDB
:105C200003461A467B6813441C4A106818601279B0
:105C30001A717868FAF7D6FE03461A467B68134451
:105C400014491A460B461B88138018E07868FAF747
:105C5000C9FE03461A467B681344104A1068186050
:105C600012791A717868FAF7BDFE03461A467B6806
:105C7000134408491A460B461B88138000BF00BF17
:105C80002037BD46B0BD00BFDC1A00206CB701084C
:105C900070B7010874B6010874B7010878B7010835
:105CA00080B586B000AF78600123FB750023FB60F0
:105CB00007F1100300221A609A800123FB751FE090
:105CC000FB7D134A52F82330184607F10C031022CB
:105CD00019460FF069FE07F10C031946786810F0B9
:105CE0004DFE7868FAF77EFE03461A467B68134439
:105CF00008491A460B461B881380FB7D0133FB7550
:105D0000FB7D372BDCD900BF00BF1837BD4680BDF7
:105D10000010002074B6010880B586B000AF78602E
:105D20000023FB6007F1100300221A609A8007F13C
:105D30000C031C221B49184610F000FE07F10C034F
:105D40001946786810F01AFE07F10C030A220021A8
:105D500018460FF049FE07F10C03062211491846B8
:105D600010F0ECFD07F10C031946786810F006FE00
:105D700007F10C030A22002118460FF035FE07F147
:105D80000C0340F2E7720849184610F0D7FD07F1FE
:105D90000C031946786810F0F1FD00BF1837BD46B6
:105DA00080BD00BF80B7010884B7010880B487B008
:105DB00000AF87ED010A0023FB754FF000033B6144
:105DC0000023FB81D7ED017AF5EEC07AF1EE10FAEF
:105DD0006FDDD7ED017AFCEEE77AC7ED007A3B681C
:105DE000FB75D7ED017AFDEEE77AF8EEE77A97EDED
:105DF000017A77EE677AC7ED047AD7ED047A9FEDE2
:105E0000337A67EE877AFCEEE77A17EE903AFB81F9
:105E1000FB7D092B19D9FB7D2D4AA2FB0323DB084F
:105E2000DBB23033DAB22B4B1A70FA7D284BA3FB6E
:105E30000213D9080B469B000B445B00D31ADBB25C
:105E40003033DAB2234B5A7007E0224B30221A70FB
:105E5000FB7D3033DAB21F4B5A701E4B2E229A70E4
:105E6000FB89092B1BD9FB89194AA2FB0323DB08F9
:105E70009BB2DBB23033DAB2164BDA70FA89144BCC
:105E8000A3FB0213D9080B469B000B445B00D31AFB
:105E90009BB2DBB23033DAB20E4B1A7110E00D4B0D
:105EA0003022DA70FB89DBB23033DAB2094B1A7177
:105EB00006E0084B084A92E80300186004331970A2
:105EC00000BF1C37BD465DF8047B70470000C84228
:105ED000CDCCCCCCE80F002088B7010880B483B0CB
:105EE00000AF78607B6800221A607B6800225A60ED
:105EF00000BF0C37BD465DF8047B704780B582B0AB
:105F000000AF786039607B681A687B685B689A428A
:105F100005DC7B6800221A607B6800225A607B687F
:105F20001A687B68023253F82230002B0FD07B684E
:105F30001A687B68023253F8223018460FF03EFD93
:105F40007B681A687B680232002143F822103B68A4
:105F5000002B0BD07B681A687B680232396843F8E3
:105F600022107B681B685A1C7B681A607B681B6860
:105F7000092B05DD044B01221A607B6809221A6097
:105F800000BF0837BD4680BDB81A002080B582B07A
:105F900000AF78607B685B68002B03D17B681B686F
:105FA000002B05D07B685A687B681B689A422CD10D
:105FB0007B685A687B681B689A4243DB7B685B6836
:105FC000002B3FD07B681B68002B3BD07B685A6856
:105FD0007B68023253F82230002B0FD07B685A685E
:105FE0007B68023253F8223018460FF0E7FC7B68DA
:105FF0005A687B680232002143F822107B68002235
:106000001A607B6800225A601CE07B685A687B68D3
:10601000023253F8223018460FF0D0FC7B685A68E1
:106020007B680232002143F822107B685B685A1CAF
:106030007B685A607B685B68092B04DD7B68002203
:106040005A6000E000BF00BF0837BD4680BD80B485
:1060500083B000AF78607B681A687B685B689A429F
:1060600009D17B685A687B68023253F82230002BD2
:1060700001D1012300E0002318460C37BD465DF82E
:10608000047B704780B483B000AF78607B680022E7
:106090001A607B6800225A6000BF0C37BD465DF86D
:1060A000047B704780B582B000AF786039607B6850
:1060B0001A687B685B689A4205DC7B6800221A607C
:1060C0007B6800225A607B681A687B68023253F84A
:1060D0002230002B0FD07B681A687B68023253F89D
:1060E000223018460FF06AFC7B681A687B6802321F
:1060F000002143F822103B68002B0BD07B681A6804
:106100007B680232396843F822107B681B685A1C8E
:106110007B681A607B681B68082B02DD7B6808229D
:106120001A6000BF0837BD4680BD80B582B000AFA1
:1061300078607B685B68002B03D17B681B68002B51
:1061400005D07B685A687B681B689A422CD17B68B3
:106150005A687B681B689A4243DB7B685B68002B4C
:106160003FD07B681B68002B3BD07B685A687B68FC
:10617000023253F82230002B0FD07B685A687B68BC
:10618000023253F8223018460FF018FC7B685A6828
:106190007B680232002143F822107B6800221A60DB
:1061A0007B6800225A601CE07B685A687B68023278
:1061B00053F8223018460FF001FC7B685A687B6860
:1061C0000232002143F822107B685B685A1C7B680E
:1061D0005A607B685B68082B04DD7B6800225A608C
:1061E00000E000BF00BF0837BD4680BD80B483B06B
:1061F00000AF78607B681A687B685B689A4209D157
:106200007B685A687B68023253F82230002B01D138
:10621000012300E0002318460C37BD465DF8047BDF
:106220007047000080B500AF104B114A1A600F4B49
:1062300000225A600D4B7F229A600C4BF922DA60E3
:106240000A4B00221A61094B00225A61074B0022B7
:106250009A61064B0022DA6104480CF01BFA0346EF
:10626000002B01D0FEF789F900BF80BD2837002040
:106270000028004080B59AB000AF786007F10803AD
:106280006022002118460FF0AFFB7B681B680F4AA5
:10629000934217D14FF40033BB604FF400737B6619
:1062A00007F1080318460BF0BFFC0346002B01D092
:1062B000FEF763F9064BD3F89030054A43F40043E8
:1062C000C2F8903000BF6837BD4680BD002800404E
:1062D0000010024080B483B000AF78607B689B8C74
